:100000001CC042C32DC02CC02BC02AC029C028C090
:1000100027C026C025C024C023C022C021C020C0C4
:100020001FC01EC01DC01CC01BC03132334134353F
:100030003642373839434630454411241FBECFE598
:10004000D2E0DEBFCDBF10E0A0E6B0E0EEEEF6E01D
:1000500002C005900D92AA3CB107D9F7A7D045C3BD
:10006000CFCFDE9A0000DE980895CF93DF93D82F8C
:10007000662311F0DC9A01C0DC98DD988AB38F60AA
:100080008ABBCBB3C07F8D2F82958F708C2B8BBB9F
:10009000E8DFDF70DC2BDBBBE4DFCF60CBBBDF91C5
:1000A000CF910895882311F0DC9A01C0DC98DD9A85
:1000B0008AB3807F8ABBDE9A000029B3DE980000F5
:1000C000DE9A000099B32295207F892F8F70DE98E9
:1000D000822B089580E0E6DF8823E4F300C000C0AF
:1000E00080E0E0DF0895CF93C82FF4DF60E08C2F2D
:1000F000BCDFCF910895611103C08058F4DF0895EB
:100100008054F1DF089581E0EEDF0895CF93C82F8A
:10011000E1DFCA3041F4803410F080E001C080E4B7
:100120008058E1DF03C061E08C2F9FDFCF910895FD
:10013000CF93DF93EC012196FC018081882321F08D
:10014000E5DF89918111FCCFDF91CF910895CF93A5
:10015000C82F9AB39F679ABB8FE99FE00197F1F789
:1001600000C00000D99AD89A7CDF81EE94E0019714
:10017000F1F700C0000075DF95E19A95F1F70000F6
:1001800070DF85E18A95F1F70000D8986ADF95E184
:100190009A95F1F7000088E2A6DF88E0A4DFB3DFDC
:1001A00086E0A1DF8C2F9FDFCF910895CF93DF935F
:1001B000CDB7DEB72F970FB6F894DEBF0FBECDBF19
:1001C0008EE0C5DF11BA8FEF82BB84BB15BA9FE00A
:1001D00097BB88BB15BE80E48BBF789423E72B8741
:1001E00033E73C8763E76A8744244394512C81E0DA
:1001F0008D87222423941886198694E09D831E827D
:1002000002E70F2EF2E79F2EF02D0F2EF2E76F2E52
:10021000F02DE0E3EF8380E690E08ADFFF81F033AA
:1002200009F4BEC0BF2EC7C088B39201002E02C021
:10023000220F331F0A94E2F73A832983922F909575
:10024000892388BB83EC99E00197F1F700C0000097
:10025000F801E65DFF4F6F019801265C3F4F790181
:100260003D813B836E816C838B819C819F878E87D0
:100270001C830B8386B3AE8490E00A2C02C0959554
:1002800087950A94E2F780FD6DC0F6011491812FE5
:100290003DDF822D123709F4872D882341F0822D0E
:1002A000F2E76F12872D882311F0612E182DC201FD
:1002B00002C0880F991FAA94E2F74E855F8526B386
:1002C00030E028233923232BD1F35F874E87522D2B
:1002D00022E7621201C0572D422D32E79312472DBB
:1002E000222D62E73612272D2423322D123709F4EE
:1002F000372D232339F0552341F0312E182D6E85EB
:100300007F8505C06E857F8502C06E857F8526B39B
:1003100030E028233923232BD1F37F876E874523B1
:10032000222D123709F4272D422379F0222DE2E7FE
:100330003E1201C0272D222359F0912E0F2EF1E3FA
:10034000BF2EF02D4E855F8505C04E855F8502C0AE
:100350004E855F8526B330E028233923232BD1F344
:100360005F874E872E853F852F5F3F4F3F872E87C4
:1003700034E0C30ED11CEC14FD0409F07BCF0B81DB
:100380001C8188B36981862B88BB0F5F1F4F0430A7
:10039000110509F049CF80E3B81641F0032D0BC0D9
:1003A000712C0F2EF2E78F2EF02D302EBF80E884B7
:1003B000F984870139CF91E4691208C0023409F049
:1003C00050C1E3E49E124FC111E314C0F2E46F1276
:1003D00050C1033409F049C124E4921248C112E328
:1003E00009C0043431F436E4931609F447C110E32C
:1003F00001C010E3103341F46D8580E07CDE87E6B8
:1004000090E096DEBF8207CF7EDE86E790E090DE4A
:10041000113359F0123381F01333A1F465E36B8784
:1004200084E38C8793E39A870DC0E3E3EB87F2E3E1
:10043000FC8721E32A8706C034E33B8763E36C87AC
:1004400082E38A8702E70F2EF2E79F2EF02D92E7D4
:100450009983312C792C0B83612EBBC088B3420168
:10046000002E02C0880C991C0A94E2F7982D9095F2
:10047000892388BBE3ECF9E03197F1F700C0000075
:100480009801265D3F4F7901C801865C9F4F6C0142
:100490006894AA24A2F8B12CBF86AE8686B3AE8437
:1004A00090E00A2C02C0959587950A94E2F780FDAA
:1004B00077C0F701B4908B2D29DE822DF2E7BF12B1
:1004C00001C0832D882361F0822D2981223709F014
:1004D000832D882329F0B9820F2EF2E7BF2EF02D4D
:1004E000C20102C0880F991FAA94E2F74E855F856A
:1004F00026B330E028233923232BD1F35F874E879F
:10050000522D3981323709F4532D422D6B816237D8
:1005100009F0432D222DE2E77E12232D342F3223C2
:10052000222DF2E7BF1201C0232D232351F05523C2
:1005300059F07B2C0F2EF2E7BF2EF02D6E857F85B4
:1005400005C06E857F8502C06E857F8526B330E04D
:1005500028233923232BD1F37F876E874523222D30
:1005600032E7B31201C0232D422369F0222D62E746
:10057000761201C0232D222349F0BB82E1E3EF83F1
:100580004E855F8505C04E855F8502C04E855F85BF
:1005900026B330E028233923232BD1F35F874E87FE
:1005A0002E853F852F5F3F4F3F872E8734E0E30E38
:1005B000F11CCE14DF0409F071CF88B3882988BB01
:1005C0000F5F1F4F0430110509F048CF6F81603372
:1005D00029F400E010E080E38F8340CF0B81162DDB
:1005E00092DD9A85E9819E132EC0FC85F7112BC000
:1005F0002B85201328C061E080E07DDD123341F0BF
:10060000133351F0113359F48DE790E091DD07C0B9
:1006100087E890E08DDD03C081E990E089DD61E04D
:1006200080E069DD8BE990E083DDAA9AA99AA89A17
:100630003FE362E48FE0315060408040E1F700C06A
:100640000000AA980CC088EA90E072DD9FEBE7E218
:10065000F9E09150E040F040E1F700C0000053DDC8
:10066000CFCD10E3C7CE10E3C5CE10E3C3CE10E369
:10067000C1CE23E4621609F4B4CEBECE44DD86E7D3
:1006800090E056DD13E3C8CE1F920F920FB60F9283
:1006900011242F933F934F935F936F937F938F9387
:1006A0009F93AF93BF93EF93FF932DDD87EB90E084
:1006B0003FDDAA9AAB9A2FE38DE093E02150804072
:1006C0009040E1F700C00000FF91EF91BF91AF9122
:1006D0009F918F917F916F915F914F913F912F915A
:0E06E0000F900FBE0F901F901895F894FFCF4B
:1006EE004C6F67696E3A006C6F67696E20696E7643
:1006FE00616C69646F0073656E68613A006F6C615E
:10070E00205553455231006F6C612055534552327E
:10071E00006F6C6120555345523300506F727461F7
:10072E00206162657274610073656E686120696E26
:10073E0076616C69646100464F474F20504F5254AA
:0A074E004120414245525441000091
:00000001FF
